    1  12:59:23.482812 IP (tos 0xc0, ttl 255, id 48945, offset 0, flags [none], proto TCP (6), length 156)
    10.0.14.4.179 > 10.0.14.1.63656: Flags [P.], cksum 0xa26f (correct), seq 123918763:123918867, ack 3762271638, win 16384, options [nop,nop,TS val 2163155192 ecr 2226825164], length 104: BGP
	Update Message (2), length: 104
	  Origin (1), length: 1, Flags [T]: IGP
	  AS Path (2), length: 0, Flags [T]: empty
	  Local Preference (5), length: 4, Flags [T]: 100
	  Extended Community (16), length: 16, Flags [OT]: 
	    target (0x0002), Flags [none]: 65000:101 (= 0.0.0.101)
	    encapsulation (0x030c), Flags [none]: Tunnel type: VXLAN
	  Multi-Protocol Reach NLRI (14), length: 44, Flags [OE]: 
	    AFI: VPLS (25), SAFI: EVPN (70)
	    no AFI 25 / SAFI 70 decoder
	    0x0000:  0019 4604 0404 0404 0002 2100 0104 0404
	    0x0010:  0400 0400 0000 0000 0000 0000 0000 0000
	    0x0020:  0030 0206 0a0e faf3 0000 0065
