    1  12:23:04.260400 IP (tos 0x2,ECT(0), ttl 64, id 4, offset 0, flags [DF], proto SCTP (132), length 380)
    150.140.254.202.57077 > 211.129.72.8.6704: sctp[ForCES HP]
	1) [DATA] (B)(E) [TSN: 1048037094] [SID: 0] [SSEQ 1] [PPID 0x0] 
	ForCES Query Response 
	ForCES Version 1 len 332B flags 0x38400000 
	SrcID 0x2(FE) DstID 0x40000001(CE) Correlator 0x1
	ForCES flags:
	  NoACK(0x0), prio=7, execute-all-or-none(0x1),
	  Standalone(0x0), StartofTransaction(0x0)
	  Extra flags: rsv(b5-7) 0x0 rsv(b13-31) 0x0
	LFBselect TLV, length 308 (data length 304 Bytes)
         FEObj LFB(Classid 1) instance 1
          Oper TLV  GetResp(0x9) length 296
           PATH-DATA TLV, length 292 (data encapsulated 288 Bytes)
            Pathdata: Flags 0x0 ID count 1
            ID#01: 2
              FULLDATA TLV (Length 280 DataLen 276 Bytes)
               [
               0x0000:  0000 0000 0000 0001 0000 0001 0000 0001
               0x0010:  0000 0002 0000 0001 0000 0002 0000 0003
               0x0020:  0000 0001 0000 0003 0000 0003 0000 0002
               0x0030:  0000 0004 0000 0004 0000 0001 0000 0005
               0x0040:  0000 0004 0000 0002 0000 0006 0000 0005
               0x0050:  0000 0001 0000 0007 0000 0005 0000 0002
               0x0060:  0000 0008 0000 0006 0000 0001 0000 0009
               0x0070:  0000 0007 0000 0001 0000 000a 0000 0007
               0x0080:  0000 0002 0000 000b 0000 0008 0000 0001
               0x0090:  0000 000c 0000 0009 0000 0001 0000 000d
               0x00a0:  0000 000a 0000 0001 0000 000e 0000 000b
               0x00b0:  0000 0001 0000 000f 0000 000c 0000 0001
               0x00c0:  0000 0010 0000 000d 0000 0001 0000 0011
               0x00d0:  0000 000e 0000 0001 0000 0012 0000 000f
               0x00e0:  0000 0001 0000 0013 0000 0010 0000 0001
               0x00f0:  0000 0014 0000 0011 0000 0001 0000 0015
               0x0100:  0000 0012 0000 0001 0000 0016 0000 0013
               0x0110:  0000 0001
               ]
	  Raw ForCES message
	 [
	 0x0000:  1014 0053 0000 0002 4000 0001 0000 0000
	 0x0010:  0000 0001 3840 0000 1000 0134 0000 0001
	 0x0020:  0000 0001 0009 0128 0110 0124 0000 0001
	 0x0030:  0000 0002 0112 0118 0000 0000 0000 0001
	 0x0040:  0000 0001 0000 0001 0000 0002 0000 0001
	 0x0050:  0000 0002 0000 0003 0000 0001 0000 0003
	 0x0060:  0000 0003 0000 0002 0000 0004 0000 0004
	 0x0070:  0000 0001 0000 0005 0000 0004 0000 0002
	 0x0080:  0000 0006 0000 0005 0000 0001 0000 0007
	 0x0090:  0000 0005 0000 0002 0000 0008 0000 0006
	 0x00a0:  0000 0001 0000 0009 0000 0007 0000 0001
	 0x00b0:  0000 000a 0000 0007 0000 0002 0000 000b
	 0x00c0:  0000 0008 0000 0001 0000 000c 0000 0009
	 0x00d0:  0000 0001 0000 000d 0000 000a 0000 0001
	 0x00e0:  0000 000e 0000 000b 0000 0001 0000 000f
	 0x00f0:  0000 000c 0000 0001 0000 0010 0000 000d
	 0x0100:  0000 0001 0000 0011 0000 000e 0000 0001
	 0x0110:  0000 0012 0000 000f 0000 0001 0000 0013
	 0x0120:  0000 0010 0000 0001 0000 0014 0000 0011
	 0x0130:  0000 0001 0000 0015 0000 0012 0000 0001
	 0x0140:  0000 0016 0000 0013 0000 0001
	 ]
    2  12:23:04.726175 IP (tos 0x0, ttl 46, id 0, offset 0, flags [DF], proto SCTP (132), length 72)
    211.129.72.8.6706 > 150.140.254.202.48316: sctp[ForCES LP]
	1) [DATA] (B)(E) [TSN: 18398476] [SID: 0] [SSEQ 0] [PPID 0x0] 
	ForCES HeartBeat 
	ForCES Version 1 len 24B flags 0xc0400000 
	SrcID 0x40000001(CE) DstID 0x2(FE) Correlator 0x2
	ForCES flags:
	  AlwaysACK(0x3), prio=0, execute-all-or-none(0x1),
	  Standalone(0x0), StartofTransaction(0x0)
	  Extra flags: rsv(b5-7) 0x0 rsv(b13-31) 0x0

	  Raw ForCES message
	 [
	 0x0000:  100f 0006 4000 0001 0000 0002 0000 0000
	 0x0010:  0000 0002 c040 0000
	 ]
    3  12:23:04.726228 IP (tos 0x2,ECT(0), ttl 64, id 1, offset 0, flags [DF], proto SCTP (132), length 48)
    150.140.254.202.48316 > 211.129.72.8.6706: sctp[ForCES LP]
	1) [SACK] [cum ack 18398476] [a_rwnd 57320] [#gap acks 0] [#dup tsns 0] 
    4  12:23:04.728649 IP (tos 0x0, ttl 46, id 3, offset 0, flags [DF], proto SCTP (132), length 100)
    211.129.72.8.6704 > 150.140.254.202.57077: sctp[ForCES HP]
	1) [DATA] (B)(E) [TSN: 167996938] [SID: 0] [SSEQ 2] [PPID 0x0] 
	ForCES Query 
	ForCES Version 1 len 52B flags 0xf8400000 
	SrcID 0x40000001(CE) DstID 0x2(FE) Correlator 0x3
	ForCES flags:
	  AlwaysACK(0x3), prio=7, execute-all-or-none(0x1),
	  Standalone(0x0), StartofTransaction(0x0)
	  Extra flags: rsv(b5-7) 0x0 rsv(b13-31) 0x0
	LFBselect TLV, length 28 (data length 24 Bytes)
         FEObj LFB(Classid 1) instance 1
          Oper TLV  Get(0x7) length 16
           PATH-DATA TLV, length 12 (data encapsulated 8 Bytes)
            Pathdata: Flags 0x0 ID count 1
            ID#01: 1

	  Raw ForCES message
	 [
	 0x0000:  1004 000d 4000 0001 0000 0002 0000 0000
	 0x0010:  0000 0003 f840 0000 1000 001c 0000 0001
	 0x0020:  0000 0001 0007 0010 0110 000c 0000 0001
	 0x0030:  0000 0001
	 ]
    5  12:23:04.733639 IP (tos 0x0, ttl 46, id 4, offset 0, flags [DF], proto SCTP (132), length 112)
    211.129.72.8.6704 > 150.140.254.202.57077: sctp[ForCES HP]
	1) [DATA] (B)(E) [TSN: 167996939] [SID: 0] [SSEQ 3] [PPID 0x0] 
	ForCES Config 
	ForCES Version 1 len 64B flags 0xf8400000 
	SrcID 0x40000001(CE) DstID 0x2(FE) Correlator 0x4
	ForCES flags:
	  AlwaysACK(0x3), prio=7, execute-all-or-none(0x1),
	  Standalone(0x0), StartofTransaction(0x0)
	  Extra flags: rsv(b5-7) 0x0 rsv(b13-31) 0x0
	LFBselect TLV, length 40 (data length 36 Bytes)
         #3(Classid 3) instance 1
          Oper TLV  SetProp(0x2) length 28
           PATH-DATA TLV, length 24 (data encapsulated 20 Bytes)
            Pathdata: Flags 0x0 ID count 2
            ID#01: 60
            ID#02: 1
              FULLDATA TLV (Length 8 DataLen 4 Bytes)
               [
               0x0000:  0000 0001
               ]
	  Raw ForCES message
	 [
	 0x0000:  1003 0010 4000 0001 0000 0002 0000 0000
	 0x0010:  0000 0004 f840 0000 1000 0028 0000 0003
	 0x0020:  0000 0001 0002 001c 0110 0018 0000 0002
	 0x0030:  0000 003c 0000 0001 0112 0008 0000 0001
	 ]
    6  12:23:04.733672 IP (tos 0x2,ECT(0), ttl 64, id 5, offset 0, flags [DF], proto SCTP (132), length 48)
    150.140.254.202.57077 > 211.129.72.8.6704: sctp[ForCES HP]
	1) [SACK] [cum ack 167996939] [a_rwnd 57228] [#gap acks 0] [#dup tsns 0] 
    7  12:23:04.734755 IP (tos 0x0, ttl 46, id 5, offset 0, flags [DF], proto SCTP (132), length 112)
    211.129.72.8.6704 > 150.140.254.202.57077: sctp[ForCES HP]
	1) [DATA] (B)(E) [TSN: 167996940] [SID: 0] [SSEQ 4] [PPID 0x0] 
	ForCES Config 
	ForCES Version 1 len 64B flags 0xf8400000 
	SrcID 0x40000001(CE) DstID 0x2(FE) Correlator 0x5
	ForCES flags:
	  AlwaysACK(0x3), prio=7, execute-all-or-none(0x1),
	  Standalone(0x0), StartofTransaction(0x0)
	  Extra flags: rsv(b5-7) 0x0 rsv(b13-31) 0x0
	LFBselect TLV, length 40 (data length 36 Bytes)
         #3(Classid 3) instance 1
          Oper TLV  SetProp(0x2) length 28
           PATH-DATA TLV, length 24 (data encapsulated 20 Bytes)
            Pathdata: Flags 0x0 ID count 2
            ID#01: 60
            ID#02: 2
              FULLDATA TLV (Length 8 DataLen 4 Bytes)
               [
               0x0000:  0000 0001
               ]
	  Raw ForCES message
	 [
	 0x0000:  1003 0010 4000 0001 0000 0002 0000 0000
	 0x0010:  0000 0005 f840 0000 1000 0028 0000 0003
	 0x0020:  0000 0001 0002 001c 0110 0018 0000 0002
	 0x0030:  0000 003c 0000 0002 0112 0008 0000 0001
	 ]
    8  12:23:04.736911 IP (tos 0x0, ttl 46, id 6, offset 0, flags [DF], proto SCTP (132), length 112)
    211.129.72.8.6704 > 150.140.254.202.57077: sctp[ForCES HP]
	1) [DATA] (B)(E) [TSN: 167996941] [SID: 0] [SSEQ 5] [PPID 0x0] 
	ForCES Config 
	ForCES Version 1 len 64B flags 0xf8400000 
	SrcID 0x40000001(CE) DstID 0x2(FE) Correlator 0x6
	ForCES flags:
	  AlwaysACK(0x3), prio=7, execute-all-or-none(0x1),
	  Standalone(0x0), StartofTransaction(0x0)
	  Extra flags: rsv(b5-7) 0x0 rsv(b13-31) 0x0
	LFBselect TLV, length 40 (data length 36 Bytes)
         #3(Classid 3) instance 1
          Oper TLV  SetProp(0x2) length 28
           PATH-DATA TLV, length 24 (data encapsulated 20 Bytes)
            Pathdata: Flags 0x0 ID count 2
            ID#01: 60
            ID#02: 3
              FULLDATA TLV (Length 8 DataLen 4 Bytes)
               [
               0x0000:  0000 0001
               ]
	  Raw ForCES message
	 [
	 0x0000:  1003 0010 4000 0001 0000 0002 0000 0000
	 0x0010:  0000 0006 f840 0000 1000 0028 0000 0003
	 0x0020:  0000 0001 0002 001c 0110 0018 0000 0002
	 0x0030:  0000 003c 0000 0003 0112 0008 0000 0001
	 ]
    9  12:23:04.736980 IP (tos 0x2,ECT(0), ttl 64, id 6, offset 0, flags [DF], proto SCTP (132), length 48)
    150.140.254.202.57077 > 211.129.72.8.6704: sctp[ForCES HP]
	1) [SACK] [cum ack 167996941] [a_rwnd 57100] [#gap acks 0] [#dup tsns 0] 
   10  12:23:04.740959 IP (tos 0x0, ttl 46, id 7, offset 0, flags [DF], proto SCTP (132), length 112)
    211.129.72.8.6704 > 150.140.254.202.57077: sctp[ForCES HP]
	1) [DATA] (B)(E) [TSN: 167996942] [SID: 0] [SSEQ 6] [PPID 0x0] 
	ForCES Config 
	ForCES Version 1 len 64B flags 0xf8400000 
	SrcID 0x40000001(CE) DstID 0x2(FE) Correlator 0x7
	ForCES flags:
	  AlwaysACK(0x3), prio=7, execute-all-or-none(0x1),
	  Standalone(0x0), StartofTransaction(0x0)
	  Extra flags: rsv(b5-7) 0x0 rsv(b13-31) 0x0
	LFBselect TLV, length 40 (data length 36 Bytes)
         #3(Classid 3) instance 2
          Oper TLV  SetProp(0x2) length 28
           PATH-DATA TLV, length 24 (data encapsulated 20 Bytes)
            Pathdata: Flags 0x0 ID count 2
            ID#01: 60
            ID#02: 1
              FULLDATA TLV (Length 8 DataLen 4 Bytes)
               [
               0x0000:  0000 0001
               ]
	  Raw ForCES message
	 [
	 0x0000:  1003 0010 4000 0001 0000 0002 0000 0000
	 0x0010:  0000 0007 f840 0000 1000 0028 0000 0003
	 0x0020:  0000 0002 0002 001c 0110 0018 0000 0002
	 0x0030:  0000 003c 0000 0001 0112 0008 0000 0001
	 ]
   11  12:24:26.948354 IP (tos 0x0, ttl 46, id 110, offset 0, flags [DF], proto SCTP (132), length 48)
    211.129.72.8.6706 > 150.140.254.202.48316: sctp[ForCES LP]
	1) [SACK] [cum ack 1830592459] [a_rwnd 55272] [#gap acks 0] [#dup tsns 0] 
   12  12:24:26.973201 IP (tos 0x2,ECT(0), ttl 64, id 90, offset 0, flags [DF], proto SCTP (132), length 80)
    150.140.254.202.57077 > 211.129.72.8.6704: sctp[ForCES HP]
	1) [HB REQ] 
   13  12:24:27.282739 IP (tos 0x0, ttl 46, id 111, offset 0, flags [DF], proto SCTP (132), length 80)
    211.129.72.8.6704 > 150.140.254.202.57077: sctp[ForCES HP]
	1) [HB REQ] 
   14  12:24:27.282783 IP (tos 0x2,ECT(0), ttl 64, id 91, offset 0, flags [DF], proto SCTP (132), length 80)
    150.140.254.202.57077 > 211.129.72.8.6704: sctp[ForCES HP]
	1) [HB ACK] 
   15  12:24:27.354881 IP (tos 0x2,ECT(0), ttl 64, id 111, offset 0, flags [DF], proto SCTP (132), length 72)
    150.140.254.202.48316 > 211.129.72.8.6706: sctp[ForCES LP]
	1) [DATA] (B)(E) [TSN: 1830592460] [SID: 0] [SSEQ 30] [PPID 0x0] 
	ForCES HeartBeat 
	ForCES Version 1 len 24B flags 0x00000000 
	SrcID 0x2(FE) DstID 0x40000001(CE) Correlator 0x53
	ForCES flags:
	  NoACK(0x0), prio=0, EMReserved(0x0),
	  Standalone(0x0), StartofTransaction(0x0)
	  Extra flags: rsv(b5-7) 0x0 rsv(b13-31) 0x0

	  Raw ForCES message
	 [
	 0x0000:  100f 0006 0000 0002 4000 0001 0000 0000
	 0x0010:  0000 0053 0000 0000
	 ]
   16  12:24:27.372769 IP (tos 0x0, ttl 46, id 112, offset 0, flags [DF], proto SCTP (132), length 80)
    211.129.72.8.6704 > 150.140.254.202.57077: sctp[ForCES HP]
	1) [HB ACK] 
   17  12:24:27.759030 IP (tos 0x0, ttl 46, id 111, offset 0, flags [DF], proto SCTP (132), length 72)
    211.129.72.8.6706 > 150.140.254.202.48316: sctp[ForCES LP]
	1) [DATA] (B)(E) [TSN: 18398553] [SID: 0] [SSEQ 77] [PPID 0x0] 
	ForCES HeartBeat 
	ForCES Version 1 len 24B flags 0xc0400000 
	SrcID 0x40000001(CE) DstID 0x2(FE) Correlator 0x83
	ForCES flags:
	  AlwaysACK(0x3), prio=0, execute-all-or-none(0x1),
	  Standalone(0x0), StartofTransaction(0x0)
	  Extra flags: rsv(b5-7) 0x0 rsv(b13-31) 0x0

	  Raw ForCES message
	 [
	 0x0000:  100f 0006 4000 0001 0000 0002 0000 0000
	 0x0010:  0000 0083 c040 0000
	 ]
   18  12:24:44.777986 IP (tos 0x0, ttl 46, id 148, offset 0, flags [DF], proto SCTP (132), length 72)
    211.129.72.8.6706 > 150.140.254.202.48316: sctp[ForCES LP]
	1) [DATA] (B)(E) [TSN: 18398573] [SID: 0] [SSEQ 97] [PPID 0x0] 
	ForCES HeartBeat 
	ForCES Version 1 len 24B flags 0xc0400000 
	SrcID 0x40000001(CE) DstID 0x2(FE) Correlator 0x97
	ForCES flags:
	  AlwaysACK(0x3), prio=0, execute-all-or-none(0x1),
	  Standalone(0x0), StartofTransaction(0x0)
	  Extra flags: rsv(b5-7) 0x0 rsv(b13-31) 0x0

	  Raw ForCES message
	 [
	 0x0000:  100f 0006 4000 0001 0000 0002 0000 0000
	 0x0010:  0000 0097 c040 0000
	 ]
   19  12:24:44.963122 IP (tos 0x0, ttl 46, id 149, offset 0, flags [DF], proto SCTP (132), length 48)
    211.129.72.8.6706 > 150.140.254.202.48316: sctp[ForCES LP]
	1) [SACK] [cum ack 1830592477] [a_rwnd 55272] [#gap acks 0] [#dup tsns 0] 
   20  12:24:44.978321 IP (tos 0x2,ECT(0), ttl 64, id 147, offset 0, flags [DF], proto SCTP (132), length 48)
    150.140.254.202.48316 > 211.129.72.8.6706: sctp[ForCES LP]
	1) [SACK] [cum ack 18398573] [a_rwnd 56144] [#gap acks 0] [#dup tsns 0] 
