    1  05:27:12.808464432 30:30:30:30:30:30 > 30:30:30:30:30:30, ethertype Unknown (0x3030), length 262144: 
	0x0000:  3030 3030 3030 3030 3030 3030 3030 3030  0000000000000000
	0x0010:  3030 3030 3030 3030 3030 3030 3030 3030  0000000000000000
	0x0020:  3030 3030 3030 3030 3030 3030 3030 3030  0000000000000000
	0x0030:  3030 3030 3030 3030 3030 3030 3030 3030  0000000000000000
	0x0040:  3030 3030 3030 3030 3030 3030 3030 3030  0000000000000000
	0x0050:  3030 3030                                0000
    2  05:27:12.808464432 IP0 (invalid)
