30:30:30:30:30:30 > 30:30:30:30:30:30, ethertype Unknown (0x3030), length 808464432: 
	0x0000:  3030 3030 3030 3030 3030 3030 3030 3030  0000000000000000
	0x0010:  3030 3030 3030 3030 3030 3030 3030 3030  0000000000000000
	0x0020:  3030                                     00
IP (tos 0x30, ttl 48, id 12336, offset 0, flags [none], proto AH (51), length 12336, bad cksum 3030 (->697b)!)
    48.48.48.48 > 48.48.48.48: AH(spi=0x30303030,sumlen=192,seq=0x30303030[truncated]):
