    1  05:27:12.808464432 30:30:30:30:30:30 > 30:30:30:30:30:30, ethertype Unknown (0x3030), length 262144: 
	0x0000:  3030 3030 3030 3030 3030 3030 3030 3030  0000000000000000
	0x0010:  3030 3030 3030 3030 3030 3030 3030 3030  0000000000000000
	0x0020:  3030                                     00
    2  05:27:12.808464432 IP 48.48.48.48.2104 > 48.48.48.48.12336:  [|zephyr]
