    1  1970-01-01 00:00:00.000000 08:00:27:2c:25:1e > 09:00:2b:00:00:05, 802.3, length 1495: LLC, dsap OSI (0xfe) Individual, ssap OSI (0xfe) Command, ctrl 0x03: OSI NLPID IS-IS (0x83): length 1492
	p2p IIH, hlen: 20, v: 1, pdu-v: 1, sys-id-len: 6 (0), max-area: 1 (1)
	0x0000:  8314 0100 1101 0001
	  source-id: 8888.8888.8888, holding time: 30s, Flags: [Level 1 only]
	  circuit-id: 0x03, PDU length: 1492
	  0x0000:  0188 8888 8888 8800 1e05 d403
	    Point-to-point Adjacency State TLV #240, length: 15
	      Adjacency State: Up (0)
	      Extended Local circuit-ID: 0x00000005
	      Neighbor System-ID: 2222.2222.2222
	      Neighbor Extended Local circuit-ID: 0x00000004
	      0x0000:  0000 0000 0522 2222 2222 2200 0000 04
	    Protocols supported TLV #129, length: 1
	      NLPID(s): ISIS_SPB (0xc1)
	      0x0000:  c1
	    Area address(es) TLV #1, length: 14
	      Area address (length: 13): 00.0000.0000.0000.0000.0000.0000
	      0x0000:  0d00 0000 0000 0000 0000 0000 0000
	    Multi-Topology-Aware Port Capability TLV #143, length: 141
	       RES: 0, MTID(s): 0
	       SPB MCID subTLV #4, length: 102
	         MCID: ID: 0, Name: IEEEIEEEIEEEIEEEIEEEIEEEIEEEIEEE
	              Lvl: 18757, Digest: 45 45 49 45 45 45 49 45 45 45 49 45 45 45 49 45 
	         AUX-MCID: ID: 69, Name: EIEEEIEEEIEEEIEEEIEEEIEEEIEEEIEE
	              Lvl: 17737, Digest: 45 45 45 49 45 45 45 49 45 45 45 49 45 45 45 49 
	       unknown subTLV #69, length: 69 (> containing TLV length)
	      0x0000:  0000 0466 0049 4545 4549 4545 4549 4545
	      0x0010:  4549 4545 4549 4545 4549 4545 4549 4545
	      0x0020:  4549 4545 4549 4545 4549 4545 4549 4545
	      0x0030:  4549 4545 4549 4545 4549 4545 4549 4545
	      0x0040:  4549 4545 4549 4545 4549 4545 4549 4545
	      0x0050:  4549 4545 4549 4545 4549 4545 4549 4545
	      0x0060:  4549 4545 4549 4545 4549 4545 4549 4545
	      0x0070:  4549 4545 4549 4545 4549 4545 4549 4545
	      0x0080:  4549 4545 4549 4545 4549 4545 45
	    unknown TLV #73, length: 69
	      0x0000:  4545 4945 4545 4945 4545 4945 4545 4945
	      0x0010:  4545 4945 4545 4945 4545 4945 4545 4945
	      0x0020:  4545 4945 4545 4945 4545 4945 4545 4945
	      0x0030:  4545 4945 4545 4945 4545 4945 4545 4945
	      0x0040:  4545 4945 45
	    unknown TLV #69, length: 73
	      0x0000:  4545 4549 4545 4549 4545 4549 4545 4549
	      0x0010:  4545 4549 4545 4549 4545 4549 4545 4549
	      0x0020:  4545 4549 4545 4549 4545 4549 4545 4549
	      0x0030:  4545 4549 4545 4549 4545 4549 4545 4549
	      0x0040:  4545 4549 4545 4549 45
	    unknown TLV #69, length: 69
	      0x0000:  4945 4545 4945 4545 4945 4545 4945 4545
	      0x0010:  4945 4545 4945 4545 4945 4545 4945 4545
	      0x0020:  4945 4545 4945 4545 4945 4545 4945 4545
	      0x0030:  4945 4545 4945 4545 4945 4545 4945 4545
	      0x0040:  4945 4545 49
	    unknown TLV #69, length: 69
	      0x0000:  4549 4545 4549 4545 4549 4545 4549 4545
	      0x0010:  4549 4545 4549 4545 4549 4545 4549 4545
	      0x0020:  4549 4545 4549 4545 4549 4545 4549 4545
	      0x0030:  4549 4545 4549 4545 4549 4545 4549 4545
	      0x0040:  4549 4545 45
	    unknown TLV #73, length: 69
	      0x0000:  4545 4945 4545 4945 4545 4945 4545 4945
	      0x0010:  4545 4945 4545 4945 4545 4945 4545 4945
	      0x0020:  4545 4945 4545 4945 4545 4945 4545 4945
	      0x0030:  4545 4945 4545 4945 4545 4945 4545 4945
	      0x0040:  4545 4945 45
	    unknown TLV #69, length: 73
	      0x0000:  4545 4549 4545 4549 4545 4549 4545 452d
	      0x0010:  3836 3739 3032 2053 5042 5350 4253 5042
	      0x0020:  5350 4220 4465 6661 756c 7400 0000 0000
	      0x0030:  0000 0000 0000 0000 b905 db76 3170 0992
	      0x0040:  3cbc 933c a050 389a 00
	    unknown TLV #73, length: 69
	      0x0000:  4545 3830 322e 3120 5350 4220 4465 6661
	      0x0010:  756c 7400 0000 0000 0000 0000 0000 0000
	      0x0020:  b905 db76 3170 0992 3cbc 933c a050 389a
	      0x0030:  0521 0000 2000 1800 0000 0000 0000 0000
	      0x0040:  0000 0a0b 9e
	    IPv6 reachability TLV #236, length: 202
	      IPv6 prefix: 2aa3:88dd:a090:8ff::/91, Distribution: up, Metric: 28221769, Internal
	      IPv6 prefix: ::/0, Distribution: up, Metric: 0, Internal
	      IPv6 prefix: ::/0, Distribution: up, Metric: 0, Internal
	      IPv6 prefix: ::/0, Distribution: up, Metric: 0, Internal
	      IPv6 prefix: ::/0, Distribution: up, Metric: 0, Internal
	      IPv6 prefix: ::/0, Distribution: up, Metric: 0, Internal
	      IPv6 prefix: ::/0, Distribution: up, Metric: 0, Internal
	      IPv6 prefix: ::/0, Distribution: up, Metric: 0, Internal
	      IPv6 prefix: ::/0, Distribution: up, Metric: 0, Internal
	      IPv6 prefix: ::/0, Distribution: up, Metric: 0, Internal
	      IPv6 prefix: ::/0, Distribution: up, Metric: 0, Internal
	      IPv6 prefix: ::/0, Distribution: up, Metric: 0, Internal
	      IPv6 prefix: ::/0, Distribution: up, Metric: 0, Internal
	      IPv6 prefix: ::/0, Distribution: up, Metric: 0, Internal
	      IPv6 prefix: ::/0, Distribution: up, Metric: 0, Internal
	      IPv6 prefix: ::/0, Distribution: up, Metric: 0, Internal
	      IPv6 prefix: ::/0, Distribution: up, Metric: 0, Internal
	      IPv6 prefix: ::/0, Distribution: up, Metric: 0, Internal
	      IPv6 prefix: ::/0, Distribution: up, Metric: 0, Internal
	      IPv6 prefix: ::/0, Distribution: up, Metric: 0, Internal
	      IPv6 prefix: ::/0, Distribution: up, Metric: 0, Internal
	      IPv6 prefix: ::/0, Distribution: up, Metric: 0, Internal
	      IPv6 prefix: ::/0, Distribution: up, Metric: 0, Internal
	      IPv6 prefix: ::/0, Distribution: up, Metric: 0, Internal
	      IPv6 prefix: ::/0, Distribution: up, Metric: 0, Internal
	      IPv6 prefix: ::/0, Distribution: up, Metric: 0, Internal
	      IPv6 prefix: ::/0, Distribution: up, Metric: 0, Internal
	      IPv6 prefix: ::/0, Distribution: up, Metric: 0, Internal
	      IPv6 prefix: ::/0, Distribution: up, Metric: 0, Internal
	      IPv6 prefix: ::/0, Distribution: up, Metric: 0, Internal
	      IPv6 prefix: ::/0, Distribution: up, Metric: 0, Internal
	      IPv6 prefix: ::/0, Distribution: up, Metric: 0, Internal [remaining tlv length 4 < 6] (invalid)
	      0x0000:  01ae a149 1d5b 2aa3 88dd a090 08ff 0000
	      0x0010:  0000 0000 0000 0000 0000 0000 0000 0000
	      0x0020:  0000 0000 0000 0000 0000 0000 0000 0000
	      0x0030:  0000 0000 0000 0000 0000 0000 0000 0000
	      0x0040:  0000 0000 0000 0000 0000 0000 0000 0000
	      0x0050:  0000 0000 0000 0000 0000 0000 0000 0000
	      0x0060:  0000 0000 0000 0000 0000 0000 0000 0000
	      0x0070:  0000 0000 0000 0000 0000 0000 0000 0000
	      0x0080:  0000 0000 0000 0000 0000 0000 0000 0000
	      0x0090:  0000 0000 0000 0000 0000 0000 0000 0000
	      0x00a0:  0000 0000 0000 0000 0000 0000 0000 0000
	      0x00b0:  0000 0000 0000 0000 0000 0000 0000 0000
	      0x00c0:  0000 0000 0000 0000 0000
	    unknown TLV #0, length: 0
	    unknown TLV #0, length: 0
	    unknown TLV #0, length: 0
	    unknown TLV #0, length: 0
	    unknown TLV #0, length: 0
	    unknown TLV #0, length: 0
	    unknown TLV #0, length: 0
	    unknown TLV #0, length: 0
	    unknown TLV #0, length: 0
	    unknown TLV #0, length: 0
	    unknown TLV #0, length: 0
	    unknown TLV #0, length: 0
	    unknown TLV #0, length: 0
	    unknown TLV #0, length: 0
	    unknown TLV #0, length: 0
	    unknown TLV #0, length: 0
	    unknown TLV #0, length: 0
	    unknown TLV #0, length: 0
	    unknown TLV #0, length: 0
	    unknown TLV #0, length: 0
	    unknown TLV #0, length: 0
	    unknown TLV #0, length: 0
	    unknown TLV #0, length: 0
	    unknown TLV #0, length: 0
	    unknown TLV #0, length: 0
	    unknown TLV #0, length: 0
	    unknown TLV #0, length: 0
	    unknown TLV #0, length: 0
	    unknown TLV #0, length: 0
	    unknown TLV #0, length: 0
	    unknown TLV #0, length: 0
	    unknown TLV #0, length: 0
	    unknown TLV #0, length: 0
	    unknown TLV #0, length: 8
	      0x0000:  ff00 0000 0000 0000
	    unknown TLV #0, length: 0
	    unknown TLV #0, length: 0
	    unknown TLV #0, length: 0
	    unknown TLV #0, length: 0
	    unknown TLV #0, length: 0
	    unknown TLV #0, length: 0
	    unknown TLV #0, length: 0
	    unknown TLV #0, length: 0
	    unknown TLV #0, length: 0
	    unknown TLV #0, length: 0
	    unknown TLV #0, length: 0
	    unknown TLV #0, length: 0
	    unknown TLV #0, length: 0
	    unknown TLV #0, length: 0
	    unknown TLV #0, length: 0
	    unknown TLV #0, length: 0
	    unknown TLV #0, length: 0
	    unknown TLV #0, length: 0
	    unknown TLV #0, length: 0
	    unknown TLV #0, length: 0
	    unknown TLV #0, length: 0
	    unknown TLV #0, length: 0
	    unknown TLV #0, length: 0
	    unknown TLV #0, length: 0
	    unknown TLV #0, length: 0
	    unknown TLV #0, length: 0
	    unknown TLV #0, length: 0
	    unknown TLV #0, length: 0
	    unknown TLV #0, length: 0
	    unknown TLV #0, length: 0
	    unknown TLV #0, length: 0
	    unknown TLV #0, length: 0
	    unknown TLV #0, length: 0
	    unknown TLV #0, length: 0
	    unknown TLV #0, length: 0
	    unknown TLV #0, length: 0
	    unknown TLV #0, length: 0
	    unknown TLV #0, length: 0
	    unknown TLV #0, length: 0
	    unknown TLV #0, length: 0
	    unknown TLV #0, length: 0
	    unknown TLV #0, length: 0
	    unknown TLV #0, length: 0
	    unknown TLV #0, length: 0
	    unknown TLV #0, length: 0
	    unknown TLV #0, length: 0
	    unknown TLV #0, length: 0
	    unknown TLV #0, length: 0
	    unknown TLV #0, length: 0
	    unknown TLV #0, length: 0
	    unknown TLV #0, length: 0
	    unknown TLV #0, length: 0
	    unknown TLV #0, length: 0
	    unknown TLV #0, length: 0
	    unknown TLV #0, length: 0
	    unknown TLV #0, length: 0
	    unknown TLV #0, length: 0
	    unknown TLV #0, length: 0
	    unknown TLV #0, length: 0
	    unknown TLV #0, length: 0
	    unknown TLV #0, length: 0
	    unknown TLV #0, length: 0
	    unknown TLV #0, length: 0
	    unknown TLV #0, length: 0
	    unknown TLV #0, length: 0
	    unknown TLV #0, length: 0
	    unknown TLV #0, length: 0
	    unknown TLV #0, length: 0
	    unknown TLV #0, length: 0
	    unknown TLV #0, length: 0
	    unknown TLV #0, length: 0
	    unknown TLV #0, length: 0
	    unknown TLV #0, length: 0
	    unknown TLV #0, length: 0
	    unknown TLV #0, length: 0
	    unknown TLV #0, length: 0
	    unknown TLV #0, length: 0
	    unknown TLV #0, length: 0
	    unknown TLV #0, length: 0
	    unknown TLV #0, length: 0
	    unknown TLV #0, length: 0
	    unknown TLV #0, length: 0
	    unknown TLV #0, length: 0
	    unknown TLV #0, length: 0
	    unknown TLV #0, length: 0
	    unknown TLV #0, length: 0
	    unknown TLV #0, length: 0
	    unknown TLV #0, length: 0
	    unknown TLV #0, length: 0
	    unknown TLV #0, length: 0
	    unknown TLV #0, length: 0
	    unknown TLV #0, length: 0
	    unknown TLV #0, length: 0
	    unknown TLV #0, length: 0
	    unknown TLV #0, length: 0
	    unknown TLV #0, length: 0
	    unknown TLV #0, length: 0
	    unknown TLV #0, length: 0
	    unknown TLV #0, length: 0
	    unknown TLV #0, length: 0
	    unknown TLV #0, length: 0
	    unknown TLV #0, length: 0
	    unknown TLV #0, length: 0
	    unknown TLV #0, length: 0
	    unknown TLV #0, length: 0
	    unknown TLV #0, length: 0
	    unknown TLV #0, length: 0
	    unknown TLV #0, length: 0
	    unknown TLV #0, length: 0
	    unknown TLV #0, length: 0
	    unknown TLV #0, length: 0
	    unknown TLV #0, length: 0
	    unknown TLV #0, length: 0
	    unknown TLV #0, length: 0
	    unknown TLV #0, length: 0
	    unknown TLV #0, length: 0
	    unknown TLV #0, length: 0
	    unknown TLV #0, length: 0
	    unknown TLV #0, length: 0
	    unknown TLV #0, length: 0
	    unknown TLV #0, length: 0
	    unknown TLV #0, length: 0
	    unknown TLV #0, length: 0
	    unknown TLV #0, length: 0
	    unknown TLV #0, length: 0
	    unknown TLV #0, length: 0
	    unknown TLV #0, length: 0
	    unknown TLV #0, length: 0
	    unknown TLV #0, length: 0
	    unknown TLV #0, length: 0
	    unknown TLV #0, length: 0
	    unknown TLV #0, length: 0
	    unknown TLV #0, length: 0
	    unknown TLV #0, length: 0
	    unknown TLV #0, length: 0
	    unknown TLV #0, length: 0
	    unknown TLV #0, length: 0
	    unknown TLV #0, length: 0
	    unknown TLV #0, length: 0
	    unknown TLV #0, length: 0
	    unknown TLV #0, length: 0
	    unknown TLV #0, length: 0
	    unknown TLV #0, length: 0
	    unknown TLV #0, length: 0
	    unknown TLV #0, length: 0
	    unknown TLV #0, length: 0
	    unknown TLV #0, length: 0
	    unknown TLV #0, length: 0
	    unknown TLV #0, length: 0
	    unknown TLV #0, length: 0
	    unknown TLV #0, length: 0
	    unknown TLV #0, length: 0
	    unknown TLV #0, length: 0
	    unknown TLV #0, length: 0
	    unknown TLV #0, length: 0
	    unknown TLV #0, length: 0
	    unknown TLV #0, length: 0
	    unknown TLV #0, length: 0
	    unknown TLV #0, length: 0
	    unknown TLV #0, length: 0
	    unknown TLV #0, length: 0
	    unknown TLV #0, length: 0
	    unknown TLV #0, length: 0
	    unknown TLV #0, length: 0
	    unknown TLV #0, length: 0
	    unknown TLV #0, length: 0
	    unknown TLV #0, length: 0
	    unknown TLV #0, length: 0
	    unknown TLV #0, length: 0
	    unknown TLV #0, length: 0
	    unknown TLV #0, length: 0
	    unknown TLV #0, length: 0
	    unknown TLV #0, length: 0
	    unknown TLV #0, length: 0
	    unknown TLV #0, length: 0
	    unknown TLV #0, length: 0
	    unknown TLV #0, length: 0
	    unknown TLV #0, length: 0
	    unknown TLV #0, length: 0
	    unknown TLV #0, length: 0
	    unknown TLV #0, length: 0
	    unknown TLV #0, length: 0
	    unknown TLV #0, length: 0
	    unknown TLV #0, length: 0
	    unknown TLV #0, length: 0
	    unknown TLV #0, length: 0
	    unknown TLV #0, length: 0
	    unknown TLV #0, length: 0
	    unknown TLV #0, length: 0
	    unknown TLV #0, length: 0
	    unknown TLV #0, length: 0
	    unknown TLV #0, length: 0
	    unknown TLV #0, length: 0
	    unknown TLV #0, length: 0
	    unknown TLV #0, length: 0
	    unknown TLV #0, length: 0
	    unknown TLV #0, length: 0
	    unknown TLV #0, length: 0
	    unknown TLV #0, length: 0
	    unknown TLV #0, length: 0
	    unknown TLV #0, length: 0
	    unknown TLV #0, length: 0
	    unknown TLV #0, length: 0
	    unknown TLV #0, length: 0
	    unknown TLV #0, length: 0
	    unknown TLV #0, length: 0
	    unknown TLV #0, length: 0
	    unknown TLV #0, length: 0
	    unknown TLV #0, length: 0
	    unknown TLV #0, length: 0
	    unknown TLV #0, length: 0
	    unknown TLV #0, length: 0
	    unknown TLV #0, length: 0
	    unknown TLV #0, length: 0
	    unknown TLV #0, length: 0
	    unknown TLV #0, length: 0
	    unknown TLV #0, length: 0
	    unknown TLV #0, length: 0
	    unknown TLV #0, length: 0
	    unknown TLV #0, length: 0
	    unknown TLV #0, length: 0
	    unknown TLV #0, length: 0
	    unknown TLV #0, length: 0
	    unknown TLV #0, length: 0
	    unknown TLV #0, length: 0
	    unknown TLV #0, length: 0
	    unknown TLV #0, length: 0
	    unknown TLV #0, length: 0
	    unknown TLV #0, length: 0
	    unknown TLV #0, length: 0
	    unknown TLV #0, length: 0
	    unknown TLV #0, length: 0
	    unknown TLV #0, length: 0
	    unknown TLV #0, length: 0
	    unknown TLV #0, length: 0
	    unknown TLV #0, length: 0
	    unknown TLV #0, length: 0
	    unknown TLV #0, length: 0
	    unknown TLV #0, length: 0
	    unknown TLV #0, length: 0
	    unknown TLV #0, length: 0
	    unknown TLV #0, length: 0
	    unknown TLV #0, length: 0
	    unknown TLV #0, length: 0
	    unknown TLV #0, length: 0
	    unknown TLV #0, length: 0
	    unknown TLV #0, length: 0
	    unknown TLV #0, length: 0
	    unknown TLV #0, length: 0
	    unknown TLV #0, length: 0
	    unknown TLV #0, length: 0
	    unknown TLV #0, length: 0
	    unknown TLV #0, length: 0
	    unknown TLV #0, length: 0
