    1  05:27:12.808464432 30:30:30:30:30:30 > 30:30:30:30:30:30, ethertype Unknown (0x3030), length 262144: 
	0x0000:  3030 3030 3030 3030 3030 3030 3030 3030  0000000000000000
	0x0010:  3030 3030 3030 3030 3030 3030 3030 3030  0000000000000000
	0x0020:  3030                                     00
    2  05:27:12.808464432 IP truncated-ip - 14 bytes missing! 48.48.48.48.525 > 48.48.48.48.12336: (tsp_type 0x30) vers 48 seq 12336 name  [|timed]
