    1  2016-04-22 14:35:18.400643 2e:b7:3f:39:95:c3 > 3e:6f:f3:74:23:7c, ethertype 802.1AE MACsec (0x88e5), length 122: an 0, pn 6, flags CI, sci 2eb73f3995c3006f, 
	0x0000:  0800 4500 0054 ab6b 4000 4001 27e9 c0a8  ..E..T.k@.@.'...
	0x0010:  7301 c0a8 7302 0800 c5fd 0784 0001 a636  s...s..........6
	0x0020:  1a57 0000 0000 a51c 0600 0000 0000 1011  .W..............
	0x0030:  1213 1415 1617 1819 1a1b 1c1d 1e1f 2021  ...............!
	0x0040:  2223 2425 2627 2829 2a2b 2c2d 2e2f 3031  "#$%&'()*+,-./01
	0x0050:  3233 3435 3637 72f1 e918 85fa ca0b       234567r.......
