    1  1970-01-01 00:00:00.000000 c2:02:52:72:00:00 > 01:00:5e:00:00:0d, ethertype IPv4 (0x0800), length 65535: (tos 0xc0, ttl 1, id 895, offset 0, flags [none], proto PIM (103), length 65521)
    10.0.0.2 > 224.0.0.13: PIMv2, length 65501
	Hello, cksum 0xaa6e (incorrect)
	  Hold Time Option (1), length 2, Value: 1m45s
	    0x0000:  0069
	  Generation ID Option (20), length 4, Value: 0x3f0ef4cd
	    0x0000:  3f0e f4cd
	  DR Priority Option (19), length 4, Value: 1
	    0x0000:  0000 0001
	  Unknown Option (0), length 256, Value: 
	    0x0000:  0001 0000 0100 0001 0000 0100 0001 0000
	    0x0010:  0100 0001 0000 0100 0001 0000 0100 0001
	    0x0020:  0000 0100 0001 0000 0100 0001 0000 0100
	    0x0030:  0001 0000 0100 0001 0000 0100 0001 0000
	    0x0040:  0100 0001 0000 0100 0001 0000 0100 0001
	    0x0050:  0000 0100 0001 0000 0100 0001 0000 0100
	    0x0060:  0001 0000 0100 0001 0000 0100 0002 0000
	    0x0070:  0100 0001 0000 0100 0001 0000 0100 0001
	    0x0080:  0000 0100 0001 0000 0100 0001 0000 0100
	    0x0090:  0001 0000 0100 0001 0000 0100 0001 0000
	    0x00a0:  0100 0001 0000 0100 0001 0000 0100 0001
	    0x00b0:  0000 0100 0001 0000 0100 0001 0000 0100
	    0x00c0:  0001 0000 0100 0001 0000 0100 0001 0000
	    0x00d0:  0100 0001 0000 0100 0001 0000 0100 0001
	    0x00e0:  0000 0100 0001 0000 0100 0001 0000 0100
	    0x00f0:  0001 0000 0100 0001 0000 0100 0001 0000
	  Unknown Option (256), length 1, Value: 
	    0x0000:  00
	  Hold Time Option (1), length 0, Value: [option length 0 != 2] (invalid)
