    1  12:04:12.420021 IP (tos 0x0, ttl 64, id 17993, offset 0, flags [DF], proto TCP (6), length 60)
    127.0.0.1.55358 > 127.0.0.1.33000: Flags [S], cksum 0xfe30 (incorrect -> 0x1a9d), seq 2523978814, win 32792, options [mss 16396,sackOK,TS val 245537399 ecr 0,nop,wscale 7], length 0
    2  12:04:12.420040 IP (tos 0x0, ttl 64, id 0, offset 0, flags [DF], proto TCP (6), length 60)
    127.0.0.1.33000 > 127.0.0.1.55358: Flags [S.], cksum 0xfe30 (incorrect -> 0x31b6), seq 3988083230, ack 2523978815, win 32768, options [mss 16396,sackOK,TS val 245537399 ecr 245537399,nop,wscale 7], length 0
    3  12:04:12.420054 IP (tos 0x0, ttl 64, id 17994, offset 0, flags [DF], proto TCP (6), length 52)
    127.0.0.1.55358 > 127.0.0.1.33000: Flags [.], cksum 0xfe28 (incorrect -> 0x19da), ack 1, win 257, options [nop,nop,TS val 245537399 ecr 245537399], length 0
    4  12:04:12.420115 IP (tos 0x0, ttl 64, id 17995, offset 0, flags [DF], proto TCP (6), length 54)
    127.0.0.1.55358 > 127.0.0.1.33000: Flags [P.], cksum 0xfe2a (incorrect -> 0x18d0), seq 1:3, ack 1, win 257, options [nop,nop,TS val 245537399 ecr 245537399], length 2: ZMTP/1.0
	 frame flags+body  (8-bit) length 1, flags 0x00 (-|-|-|-|-|-|-|-)
    5  12:04:12.420121 IP (tos 0x0, ttl 64, id 51304, offset 0, flags [DF], proto TCP (6), length 52)
    127.0.0.1.33000 > 127.0.0.1.55358: Flags [.], cksum 0xfe28 (incorrect -> 0x19d9), ack 3, win 256, options [nop,nop,TS val 245537399 ecr 245537399], length 0
    6  12:04:12.420129 IP (tos 0x0, ttl 64, id 51305, offset 0, flags [DF], proto TCP (6), length 54)
    127.0.0.1.33000 > 127.0.0.1.55358: Flags [P.], cksum 0xfe2a (incorrect -> 0x18cf), seq 1:3, ack 3, win 256, options [nop,nop,TS val 245537399 ecr 245537399], length 2: ZMTP/1.0
	 frame flags+body  (8-bit) length 1, flags 0x00 (-|-|-|-|-|-|-|-)
    7  12:04:12.420138 IP (tos 0x0, ttl 64, id 17996, offset 0, flags [DF], proto TCP (6), length 52)
    127.0.0.1.55358 > 127.0.0.1.33000: Flags [.], cksum 0xfe28 (incorrect -> 0x19d6), ack 3, win 257, options [nop,nop,TS val 245537399 ecr 245537399], length 0
    8  12:04:12.420189 IP (tos 0x0, ttl 64, id 17997, offset 0, flags [DF], proto TCP (6), length 148)
    127.0.0.1.55358 > 127.0.0.1.33000: Flags [P.], cksum 0xfe88 (incorrect -> 0x11da), seq 3:99, ack 3, win 257, options [nop,nop,TS val 245537399 ecr 245537399], length 96: ZMTP/1.0
	 frame flags+body  (8-bit) length 1, flags 0x01 (-|-|-|-|-|-|-|MORE)
	 frame flags+body  (8-bit) length 93, flags 0x00 (-|-|-|-|-|-|-|-), first 92 byte(s) of body:
	 0x0000:  5468 6973 2069 7320 6120 7368 6f72 7420  This.is.a.short.
	 0x0010:  4153 4349 4920 6d65 7373 6167 6520 666f  ASCII.message.fo
	 0x0020:  6c6c 6f77 6564 2062 7920 6120 7368 6f72  llowed.by.a.shor
	 0x0030:  7420 6269 6e61 7279 206d 6573 7361 6765  t.binary.message
	 0x0040:  2061 6e64 2061 206c 6f6e 6765 7220 4153  .and.a.longer.AS
	 0x0050:  4349 4920 6d65 7373 6167 652e            CII.message.
    9  12:04:12.420352 IP (tos 0x0, ttl 64, id 51306, offset 0, flags [DF], proto TCP (6), length 84)
    127.0.0.1.33000 > 127.0.0.1.55358: Flags [P.], cksum 0xfe48 (incorrect -> 0xc80f), seq 3:35, ack 99, win 256, options [nop,nop,TS val 245537399 ecr 245537399], length 32: ZMTP/1.0
	 frame flags+body  (8-bit) length 1, flags 0x01 (-|-|-|-|-|-|-|MORE)
	 frame flags+body  (8-bit) length 29, flags 0x00 (-|-|-|-|-|-|-|-), first 28 byte(s) of body:
	 0x0000:  5468 6973 2069 7320 6120 7368 6f72 7420  This.is.a.short.
	 0x0010:  4153 4349 4920 7265 706c 792e            ASCII.reply.
   10  12:04:12.420442 IP (tos 0x0, ttl 64, id 17998, offset 0, flags [DF], proto TCP (6), length 72)
    127.0.0.1.55358 > 127.0.0.1.33000: Flags [P.], cksum 0xfe3c (incorrect -> 0xcef8), seq 99:119, ack 35, win 257, options [nop,nop,TS val 245537399 ecr 245537399], length 20: ZMTP/1.0
	 frame flags+body  (8-bit) length 1, flags 0x01 (-|-|-|-|-|-|-|MORE)
	 frame flags+body  (8-bit) length 17, flags 0x00 (-|-|-|-|-|-|-|-), first 16 byte(s) of body:
	 0x0000:  0001 0203 0405 0607 0809 0a0b 0c0d 0e0f  ................
   11  12:04:12.420526 IP (tos 0x0, ttl 64, id 51307, offset 0, flags [DF], proto TCP (6), length 84)
    127.0.0.1.33000 > 127.0.0.1.55358: Flags [P.], cksum 0xfe48 (incorrect -> 0xc7da), seq 35:67, ack 119, win 256, options [nop,nop,TS val 245537400 ecr 245537399], length 32: ZMTP/1.0
	 frame flags+body  (8-bit) length 1, flags 0x01 (-|-|-|-|-|-|-|MORE)
	 frame flags+body  (8-bit) length 29, flags 0x00 (-|-|-|-|-|-|-|-), first 28 byte(s) of body:
	 0x0000:  5468 6973 2069 7320 6120 7368 6f72 7420  This.is.a.short.
	 0x0010:  4153 4349 4920 7265 706c 792e            ASCII.reply.
   12  12:04:12.420620 IP (tos 0x0, ttl 64, id 17999, offset 0, flags [DF], proto TCP (6), length 603)
    127.0.0.1.55358 > 127.0.0.1.33000: Flags [P.], cksum 0x0050 (incorrect -> 0xafc1), seq 119:670, ack 67, win 257, options [nop,nop,TS val 245537400 ecr 245537400], length 551: ZMTP/1.0
	 frame flags+body  (8-bit) length 1, flags 0x01 (-|-|-|-|-|-|-|MORE)
	 frame flags+body (64-bit) length 540, flags 0x00 (-|-|-|-|-|-|-|-), first 128 byte(s) of body:
	 0x0000:  5468 6520 7175 6963 6b20 6272 6f77 6e20  The.quick.brown.
	 0x0010:  666f 7820 6a75 6d70 7320 6f76 6572 2074  fox.jumps.over.t
	 0x0020:  6865 206c 617a 7920 646f 672e 2054 6865  he.lazy.dog..The
	 0x0030:  2071 7569 636b 2062 726f 776e 2066 6f78  .quick.brown.fox
	 0x0040:  206a 756d 7073 206f 7665 7220 7468 6520  .jumps.over.the.
	 0x0050:  6c61 7a79 2064 6f67 2e20 5468 6520 7175  lazy.dog..The.qu
	 0x0060:  6963 6b20 6272 6f77 6e20 666f 7820 6a75  ick.brown.fox.ju
	 0x0070:  6d70 7320 6f76 6572 2074 6865 206c 617a  mps.over.the.laz
   13  12:04:12.420759 IP (tos 0x0, ttl 64, id 51308, offset 0, flags [DF], proto TCP (6), length 84)
    127.0.0.1.33000 > 127.0.0.1.55358: Flags [P.], cksum 0xfe48 (incorrect -> 0xc592), seq 67:99, ack 670, win 256, options [nop,nop,TS val 245537400 ecr 245537400], length 32: ZMTP/1.0
	 frame flags+body  (8-bit) length 1, flags 0x01 (-|-|-|-|-|-|-|MORE)
	 frame flags+body  (8-bit) length 29, flags 0x00 (-|-|-|-|-|-|-|-), first 28 byte(s) of body:
	 0x0000:  5468 6973 2069 7320 6120 7368 6f72 7420  This.is.a.short.
	 0x0010:  4153 4349 4920 7265 706c 792e            ASCII.reply.
   14  12:04:12.420972 IP (tos 0x0, ttl 64, id 18000, offset 0, flags [DF], proto TCP (6), length 52)
    127.0.0.1.55358 > 127.0.0.1.33000: Flags [F.], cksum 0xfe28 (incorrect -> 0x16d8), seq 670, ack 99, win 257, options [nop,nop,TS val 245537400 ecr 245537400], length 0
   15  12:04:12.421071 IP (tos 0x0, ttl 64, id 51309, offset 0, flags [DF], proto TCP (6), length 52)
    127.0.0.1.33000 > 127.0.0.1.55358: Flags [F.], cksum 0xfe28 (incorrect -> 0x16d8), seq 99, ack 671, win 256, options [nop,nop,TS val 245537400 ecr 245537400], length 0
   16  12:04:12.421087 IP (tos 0x0, ttl 64, id 18001, offset 0, flags [DF], proto TCP (6), length 52)
    127.0.0.1.55358 > 127.0.0.1.33000: Flags [.], cksum 0xfe28 (incorrect -> 0x16d7), ack 100, win 257, options [nop,nop,TS val 245537400 ecr 245537400], length 0
